:020000040800F2
:1000000068910420F9020008FD9C0008CF4A00080E
:10001000619C00081109000885B700080000000075
:100020000000000000000000000000008BAD000890
:10003000B70F000800000000C7A5000841AE000887
:100040001303000813030008130300081303000838
:100050001303000813030008130300081303000828
:100060001303000813030008130300081303000818
:1000700013030008130300088D0D0008A10D0008EC
:1000800013030008130300081303000813030008F8
:1000900013030008130300081303000813030008E8
:1000A00013030008130300081303000813030008D8
:1000B00013030008ADAE0008BDAE0008130300082E
:1000C00013030008130300081303000813030008B8
:1000D00013030008E5B60008130300081303000823
:1000E0001303000813030008130300081303000898
:1000F0001303000813030008130300081303000888
:100100001303000813030008130300081303000877
:100110001303000813030008130300081303000867
:1001200013030008B10D00081303000813030008AF
:100130001303000813030008130300081303000847
:100140001303000813030008130300081303000837
:100150001303000813030008650E000813030008CA
:100160001303000813030008130300081303000817
:1001700013030008130300082D0B00080000000003
:1001800013030008130300081303000813030008F7
:1001900013030008130300081303000813030008E7
:1001A00013030008130300081303000813030008D7
:1001B00013030008130300081303000813030008C7
:1001C00013030008130300080000000013030008D5
:1001D00013030008130300081303000813030008A7
:1001E0001303000813030008130300081303000897
:1001F000130300081303000800F002F800F06DF884
:100200000AA090E8000C82448344AAF10107DA4571
:1002100001D100F062F8AFF2090EBAE80F0013F056
:10022000010F18BFFB1A43F001031847002C01000F
:10023000202C01000A444FF0000C10F8013B13F091
:10024000070408BF10F8014B1D1108BF10F8015B2F
:10025000641E05D010F8016B641E01F8016BF9D122
:1002600013F0080F1EBF10F8014BAD1C0C1B09D179
:100270006D1E58BF01F801CBFAD505E014F8016BEB
:1002800001F8016B6D1EF9D59142D6D3704700007D
:100290000023002400250026103A28BF78C1FBD88F
:1002A000520728BF30C148BF0B607047642900F077
:1002B000A180752900F09E80782900F0D7806329FD
:1002C00000F0B982732900F0BE82002070471FB58C
:1002D0000CF094FC1FBD10B510BD00F0E7FA1146FC
:1002E000FFF7F5FF0BF000FB00F005FB03B4FFF791
:1002F000F2FF03BC0BF04FFA09488047094800475A
:10030000FEE7FEE7FEE7FEE7FEE7FEE7FEE7FEE7C5
:10031000FEE7FEE704480549054A064B7047000022
:1003200049AE0008F9010008688B04206891042098
:10033000688D0420688D0420704700000FB40449C4
:1003400010B503AA029800F083FA10BC5DF814FB04
:100350007C00022070B5044685690068C10601D59D
:10036000302600E02026C00707D070BDD4E9012167
:1003700030469047206A401C20626D1EF6D570BD45
:1003800070B5044685690078C00707D170BDD4E90F
:10039000012120209047206A401C20626D1EF6D566
:1003A00070BD70B50C460546012A05D02878800638
:1003B00000D5EA69002302E0012305E05B1C9342BB
:1003C00002D2E05C0028F9D1A869E618C01AA86139
:1003D000286A184428622846FFF7BCFF04E0D5E9E4
:1003E000012114F8010B9047B442F8D32846FFF7D7
:1003F000C7FF70BD2DE9F04106460024106875293D
:10040000314616A510D0AFF30080002802DA404232
:1004100013A507E031688A0701D512A502E0490754
:1004200004D511A5012401E0AFF3008000210A22C8
:1004300006F1240709E0B0FBF2FCB0FBF2F302FB8B
:100440001C00303078541846491C0028F3D123464C
:100450002A463046BDE8F04100F08AB900000000AD
:100460002D0000002B0000002000000070B50446A5
:100470000D4621461068AFF300802188090502D59A
:100480000F4A7A4402E00E4A7A440E32002104F107
:10049000240305E000F00F060009965D5E54491C38
:1004A0000028F7D120780023000704D5702D02D052
:1004B00009B1022311322046BDE8704000F058B95E
:1004C000C42501002DE9F05F894604464FF0000A7B
:1004D000DFF874B1FB44C0F820A02046E1688847EB
:1004E000002874D0252806D0D4E901219047206A3D
:1004F000401C2062F1E700265F462046E1688847FD
:100500002028054607DB312D05D2781910F8200C7C
:1005100008B10643F1E7B00701D526F00406C4F898
:100520001CA00027C4F818A02A2D09D028460BF0DB
:100530002BF938B304EB8708303DC8F8185019E0A0
:1005400059F8041B204604EB87029161E168884753
:10055000012F054618D1E069002820DA26F0200690
:100560001DE0D8F8180000EB800005EB40003038A3
:10057000C8F818002046E168884705460BF004F9E2
:100580000028EED1012F0AD02E2D08D12046E16897
:1005900088477F1C0546022F46F02006C4DBA06971
:1005A000002803DA404246F00106A061F00701D0BE
:1005B00026F010066C2D0BD0682D09D04C2D39D0AB
:1005C0006A2D35D0742D35D07A2D33D016E038E031
:1005D000E1682F4620468847B842054609D16C2F6E
:1005E00026D04FF48060E1680643204688470546E0
:1005F00004E06C2F1AD04FF4807006430DB3A5F1C0
:100600004100192802D8203546F400664A4629469A
:10061000204626604E46FFF749FE80B101280BD0E8
:10062000F61D26F0070000F1080956E74020E4E730
:100630008020D8E70020D6E706F104094DE72846D8
:1006400052E7206ABDE8F09F9A25010010B5203AD4
:10065000C0F00B80B1E81850203AA0E81850B1E87B
:100660001850A0E81850BFF4F5AF5FEA027C24BF31
:10067000B1E81850A0E8185044BF18C918C0BDE828
:1006800010405FEA827C24BF51F8043B40F8043BF1
:1006900008BF7047D20728BF31F8023B48BF11F8A6
:1006A000012B28BF20F8023B48BF00F8012B704700
:1006B0004FF0000200B5134694469646203922BFFB
:1006C000A0E80C50A0E80C50B1F12001BFF4F7AF46
:1006D000090728BFA0E80C5048BF0CC05DF804EB28
:1006E000890028BF40F8042B08BF704748BF20F896
:1006F000022B11F0804F18BF00F8012B704700004B
:100700004FF0013C50F8042B51F8043B9A4215D1AC
:10071000A2EB0C03934313EACC130BD150F8042B38
:1007200051F8043B9A4209D1A2EB0C03934313EA1C
:10073000CC13E7D04FF00000704700BFD01A01BAC9
:10074000B1FA81F101F0180122FA01F0CB40C1F1B8
:100750002001DBB2C0B2C01A2CFA01F3D11A9143C6
:1007600011EAC311E6D17047704770477047704770
:100770002DE9F0470D4699469246044600F12408BB
:100780000168880604D5E06921F01001216000E0CD
:100790000120A84201DD471B00E00027A1697A196A
:1007A00002EB0900081AA0612078C00602D4204696
:1007B000FFF7D0FD002608E0D4E901211AF8060071
:1007C0009047206A401C761C20624E45F4DB20785E
:1007D000C0060AD52046FFF7BDFD06E0D4E9012199
:1007E00030209047206A401C2062381EA7F1010784
:1007F000F4DC07E0D4E9012118F805009047206AED
:10080000401C2062281EA5F10105F3DC2046FFF7FD
:10081000B7FD2078000602D50220BDE8F087012050
:10082000FBE710B5436913B1AFF3008001E0FFF7B8
:10083000B8FD012010BD127800F124010A700022D9
:100840004A700122EDE711684FF0FF32E9E700003E
:10085000074B70B50D467B4400F011F8044628465E
:1008600000F020F810B14FF0FF3070BD204670BD91
:10087000EBAF000001694A1C02610878704700B5BF
:100880008FB0CDE901310021059105497944CDE9C9
:10089000031011466846FFF715FE0FB000BD0000BB
:1008A000E5FFFFFF007B00F080007047754600F019
:1008B0002BF8AE4605006946534620F007008546F2
:1008C00018B020B5FFF726FDBDE820404FF0000628
:1008D0004FF000074FF000084FF0000B21F0070128
:1008E000AC46ACE8C009ACE8C009ACE8C009ACE86B
:1008F000C0098D46704710B50446AFF3008020460E
:10090000BDE81040FFF7F2BC00487047088B042098
:1009100000BFFEE7024682EA2120C0B2034B33F853
:10092000100080EA012080B2704700004A280108C8
:1009300010B500BF00BF00BF00BF00BFBFF34F8FA7
:1009400000BF00BF00BF00BF00BF00BFBFF36F8F7D
:1009500000BF00BF00BF00201149086011480068B7
:1009600040F400300F49086000BF00BF00BFBFF374
:100970004F8F00BF00BF00BF00BF00BF00BFBFF36D
:100980006F8F00BF00BF00BF00BF09F075FE0448B5
:100990004C30006840F0040001494C31086010BD43
:1009A00050EF00E014ED00E0F0B505460C460026DF
:1009B00000BF34F9027B31463846FFF7ABFF0646ED
:1009C00038123146FFF7A6FF0646681E051EF0D115
:1009D000B0B2F0BD70B504460D4616460D4800F0A5
:1009E000F1FC0D480B49086000204860610109488E
:1009F0008160F101C160A901016100214161816152
:100A000000F064FD03480068006802490968086056
:100A100070BD0000948404200000055070B50546A8
:100A2000AC6BA06C406D022806D0012084F8350024
:100A3000E06C40F04000E064204600F0D1FC70BD66
:100A40002DE9F84306460C4615461F46DDF8208082
:100A500000BF3148006840F480002F490860084614
:100A6000006800F48000009000BF00BF00BF2B486A
:100A70002B49886408462949886300BF08460068F6
:100A8000006820F0100009680860264823490860C3
:100A90004FF000704860002120488160C160C0F8BC
:100AA00010804FF48051416187610911C161490291
:100AB000016204214162012181620021C16201635E
:100AC00000F065FE154800F0B7FF00BF0020134995
:100AD00081F8340000BF34B92B46324612490F4822
:100AE00001F01EF816E0234632460F490B480095E8
:100AF00000F0FBFD09480068006840F0100007495D
:100B00000968086003220221392001F0DBFD392049
:100B100001F0CBFDBDE8F88330380240E4840420C6
:100B200094840420286402402800055010B502482F
:100B300000F072FC10BD00009484042010B514482D
:100B4000144908600020486020211248816000217B
:100B5000C16001614161816100F0B8FC0D4800682D
:100B6000C06820F01E000B490968C8600948006889
:100B7000C06840F0010007490968C860054800687E
:100B8000006840F4804003490968086010BD000017
:100B900000000550948404202DE9F04104460D46E0
:100BA00016461F4600F044F84FF6FF7004F0F0F8C8
:100BB0003B4632462946204606F016FF3B46324663
:100BC0000021084609F0DAFB0021084606F070FE15
:100BD00007F0BEF807480068006840F001000549CA
:100BE000096808600448006840F001000249086094
:100BF000BDE8F081E48404200000055010B5002118
:100C0000084606F055FE07F0A3F80748006800689C
:100C100040F001000449096808600448006840F099
:100C200001000249086010BDE48404200000055062
:100C30000A48006820F001000849086000BF074822
:100C4000006800F001000028F9D10548006800683C
:100C500020F0010002490968086070470000055053
:100C6000E484042002460020704700002DE9F04F84
:100C700085B00E4693461F46DDF83880002004906C
:100C80004FF6FF7000EA48000390C2464FF4FA7135
:100C9000194A0398CDE900200291710002235A46B7
:100CA000164801F0EFF98146B9F1000F00D015E0C8
:100CB0000F98A0F800A0104C3D4607E020780002F5
:100CC000218800EB112025F8020BA41CBAF10000CA
:100CD000AAF101011FFA81FAF0D100BFB9F1000FAA
:100CE00003D06FF01900049001E0002004900498F4
:100CF00005B0BDE8F08F0000088704200C840420B4
:100D00002DE9FE4F0F4615469846DDF8309000203D
:100D100002904FEA490000B201900198801C0FFA3E
:100D200080FA280200EB152016490880464601F19A
:100D3000020B07E030780002318800EB11202BF81D
:100D4000020BB61CB9F10000A9F101011FFA81F9EB
:100D5000F0D14FF4FA701FFA8AF37900094A009033
:100D6000094801F0D5F8044604B104E0CAF34F0184
:100D70000D98018000BF14B14FF0FF30029002982F
:100D8000BDE8FE8F088704200C84042010B50348BA
:100D900000F02EFD0AF09CFD10BD00000C86042022
:100DA00010B5024800F024FD10BD00006C86042040
:100DB00010B5284800682849884205D92648543883
:100DC000006800F400601BE0224800682349884264
:100DD00005D921485838006800F4006010E01D482B
:100DE00000681E496039884205D91C48B8384068F7
:100DF00000F4006004E01948B838006800F40060AE
:100E000030B3144800681449884204D9C814124900
:100E10004C39086019E00F4800681049884204D92D
:100E2000C8140D49503908600FE00A4800680B49A2
:100E30006039884204D9C8140849B839C86004E048
:100E40004FF400600549B83988600548006880475C
:100E500010BD0000E484042058640240B8600240E1
:100E60009800022010B5034800F0C2FC012002499E
:100E7000088010BDFC810420120002200146087881
:100E800010381823B0FBF3F20848805CC865032AC9
:100E900005D908686FF30900001D886503E008683C
:100EA0006FF309008865886D704700001ECC00084C
:100EB000014600208A6A8B6903BB32B1012A0CD03B
:100EC000022A10D0032A17D115E0CB6A03F08073F1
:100ED000B3F1807F00D101200FE0CB6AB3F1C07F76
:100EE00000D1012009E0CB6A03F08073B3F1807F69
:100EF00000D1012001E000E000BF35E08B69B3F5CF
:100F0000005F1BD132B1012A06D0022A0CD0032A7D
:100F100012D10BE0012010E0CB6A03F08073B3F133
:100F2000807F00D1012008E0012006E0CB6AB3F108
:100F3000C07F00D1012000E000BF15E032B1012ADE
:100F400005D0022A04D0032A0CD103E000BF00BF61
:100F5000012008E0CB6A03F08073B3F1807F00D1F9
:100F6000012000E000BF00BF704710B50468636057
:100F70008468402C04D10468A2600468E16003E046
:100F80000468A1600468E26010BD30B5046824689C
:100F900024F4802405682C60046863608468402C15
:100FA00004D10468A2600468E16003E00468A16001
:100FB0000468E26030BD704700BFFEE770B50446CC
:100FC0001D460023B5F5804F13D154F822300C484C
:100FD0000340D1E9000640EA06108E6840EA062088
:100FE0008E8940EA06408E693043034344F822303C
:100FF00003E06FF0704044F82200002070BD000054
:101000000000F0CF10B502460023086852F82030E7
:101010001B480340D1E901042043CC6820430C69FC
:1010200020434C6920438C692043CC6920430C6ADF
:1010300020434C6A20438C6A2043CC6A20430C6BCB
:1010400020438C6B20434C6B204303438868082863
:1010500001D143F04003086842F82030086BB0F536
:10106000801F05D1086818B110680C6B2043106010
:10107000086818B110684C6B20431060002010BD48
:101080008004C0FF30B5034614460022601C53F8AC
:10109000202002F04042D1E9000540EA05108D68A9
:1010A00040EA05208D8940EA0545088A401E45EA48
:1010B0000055087D801E45EA00608D692843024383
:1010C000601C43F82020186800F4801038B158687C
:1010D00020F47002088A401E42EA00525A60002042
:1010E00030BD30B50246002300240868012816D020
:1010F00013686FF30E03D1E901052843CD68284337
:101100000D6928434D6928438D692843CD692843DB
:101110000D6A28434D6A28430343136019E013689E
:1011200023F4F843D1E9070528434D6A28430343D4
:1011300054686FF30E04D1E901052843CD682843B4
:101140000D6928434D6928438D6928430443136082
:101150005460002030BD0246506940EA41005061B1
:1011600000207047F8B506460C4615460020009052
:101170000027D4E900010843A168491E40EA411054
:10118000E16840EA412000900098306100F026FEBE
:10119000074609E0681C38B125B100F01FFEC01BEE
:1011A000A84201D90320F8BDB06900F02000002852
:1011B000F0D100BFF7E7000070B5034615460022E6
:1011C0000024012D1FD09A6802F070420868401E6A
:1011D0004E68761E40EA06168868401E46EA0026DB
:1011E000C868401E46EA0036088A401E46EA0046A5
:1011F000888A401E46EA0056087E401E46EA006085
:1012000002439A6022E09A6811480240C868401E72
:101210000603888A401E46EA00500243DC6804F058
:1012200070440868401E4E68761E40EA06168868BC
:10123000401E46EA0026088A401E46EA0046087E0E
:10124000401E46EA006004439A60DC60002070BDE6
:10125000FF0F0FFF1CB500BF4CA00068009094E08A
:1012600052214B4809F02EFC4948007800287BD1D8
:1012700041F2E6214648A43009F024FC454890F8A4
:10128000CC053B28EBD144480078C0EB001000EBC4
:101290008000424901EB403600251CE005EB450487
:1012A000601C16F8100000F01F0136F8140061F3FE
:1012B0005F10A11C16F8111001F01F0100EB812135
:1012C0003748008840F2DB125043364A02EBC01028
:1012D00020F815106D1CB5F5C84FDFD300241FE0B2
:1012E00000251AE004EBC40000EB4410284901EB90
:1012F0008001A81C31F810102948008840F2DB1248
:101300005043284A02EBC01204F5A07000EB8000A5
:1013100005EB001022F810106D1C502DE2D3641C58
:101320003C2CDDD31E48008840F2DB1148431D49A8
:1013300001EBC01701AB00220321684608F0BCF89E
:1013400000240CE004EBC40101EB041107EB411095
:1013500001AB00224FF4487108F0AEF8641C4C2C2D
:10136000F0D3BDF8041000E00CE00FA0FEF7E6FF9C
:10137000104801680068401C0E4B18600EA0FEF774
:10138000DDFF02E0012000F0FEFB69E755AA5500F1
:10139000545A0420547A04200B00022000401FC03D
:1013A0001200022000B004C17374617475733D258E
:1013B000640D0A00140002206672616D653D2564AB
:1013C0000D0A000010B50446204600F0DEF80020AB
:1013D000E06484F8350000BF84F8340000BF10BD1D
:1013E0007047000010B504460121084800F0ECFCED
:1013F00007480078401C0649087006480068C06825
:1014000040F0010003490968C86010BD00040240B3
:10141000940002209484042070B504462068056975
:1014200005F0040004280ED121684861E06C40F00A
:101430000200E064042084F835002348A16C0865AC
:10144000A06C00F090F905F0020002280ED121688E
:101450004861E06C40F00100E064042084F835004D
:101460001948A16C0865A06C00F07DF905F010002A
:10147000102804D121684861204600F085F805F065
:101480000800082804D121684861204600F02CF9A2
:1014900005F00100B8B12068006800F002000228E1
:1014A00005D12068C06820F01E002168C86020684F
:1014B000C06820F001002168C860012021684861EF
:1014C0002046FFF78FFF70BD1D0A000810B50446C7
:1014D0000CB9012010BD94F8350010B9204600F079
:1014E00055F8022084F83500206800682549084036
:1014F00021680860616960680843E1680843216900
:101500000843A1680843A1690843216A0843616A46
:101510000843A16A0843E16A0843216B0843216834
:101520000968084321680860606810281DD1217F80
:10153000607F4FF47F4292FAA2F2B2FA82F29040B8
:101540000843A17F4FF47F0292FAA2F2B2FA82F22C
:1015500091400843E17F4FF07F4292FAA2F2B2FA43
:1015600082F291400843216888612068C06840F099
:101570001E002168C8600020E064012084F8350066
:101580000020A7E707F0E0FF7047704710B586B06E
:10159000044600BF4D48006840F001004B49086018
:1015A0000846006800F00100009000BF00BF00BFC7
:1015B000081F006840F00100091F08600846006825
:1015C00000F00100009000BF00BF00BF08460068A7
:1015D00040F0020008600846006800F00200009039
:1015E00000BF00BF00BF0846006840F0040008606C
:1015F0000846006800F00400009000BF00BF00BF74
:101600000846006840F0080008600846006800F0DE
:101610000800009000BF00BF00BF0846006840F00F
:10162000800008600846006800F08000009000BF5D
:1016300000BF00BF0846006840F040000860084650
:10164000006800F04000009000BF00BF4020019003
:101650000220029001200390032004900D200590A9
:1016600001A91B4800F09CFAC020019001A919486B
:1016700000F096FA4FF44060019001A9164800F07E
:101680008FFA4FF48040019001A9144800F088FAC5
:101690000820019001A9124800F082FA4FF460700E
:1016A000019001A90F4800F07BFA1020019001A9D8
:1016B000074800F075FA012211464E2001F002F8A9
:1016C0004E2000F0F2FF06B010BD0000343802409A
:1016D000000002400008024000180240001C0240C6
:1016E000000C02400004024070472DE9F047044618
:1016F0000E4617461D46DDF820804FF00009A06811
:10170000802804D1400060654FF0010929E000BF46
:1017100094F83400012802D10220BDE8F0870120AE
:1017200084F8340000BF94F83500012817D1022056
:1017300084F835002068006840F480202168086043
:101740002068056143463A4631462046FFF70DFCC6
:101750002068006840F001002168086001E04FF057
:1017600002094846D9E7014691F83500022803D01E
:101770008020486501207047052081F83500086801
:10178000006820F001000A6810600020F3E770B5DF
:1017900004460CB9012070BD94F83500022800D130
:1017A000F9E72068006820F0010021680860002047
:1017B0002168086021684860216888602168C860E5
:1017C000216808612120216848612046FFF756FB07
:1017D000054694F85C103F208840A86000206065B2
:1017E00084F8350000BF84F8340000BF00BFD2E7A2
:1017F000F8B50446002000908D4800684FF416515B
:10180000B0FBF1F7A56D2E6894F85C1008208840B5
:10181000304098B12068006800F0040070B1206882
:10182000006820F004002168086094F85C1008202B
:101830008840A860606D40F00100606594F85C101D
:101840007C488840304068B12068406900F08000E2
:1018500040B194F85C1077488840A860606D40F013
:101860000200606594F85C107248C01C88403040EB
:1018700070B12068006800F0020048B194F85C1074
:101880006C48C01C8840A860606D40F00400606532
:1018900094F85C1010208840304078B320680068CD
:1018A00000F0080050B394F85C1010208840A86045
:1018B0002068006800F4802080B12068006800F48F
:1018C000002028B9206CC8B12046216C884715E05B
:1018D000A06C98B12046A16C88470FE02068006892
:1018E00000F4807028B92068006820F008002168A2
:1018F0000860206C10B12046216C884794F85C1079
:10190000202088403040002865D02068006800F022
:10191000100000285FD094F85C1020208840A86058
:1019200094F83500052828D12068006820F01600BA
:10193000216808602068406920F0800021684861C3
:10194000206C08B9A06C28B12068006820F008005D
:101950002168086094F85C103F208840A86000BFB0
:10196000002084F8340000BF012084F83500206D89
:1019700010B12046216D8847F8BD2068006800F44A
:10198000802080B12068006800F4002028B9606CD5
:1019900010B12046616C88471DE0E06BD8B120464D
:1019A000E16B884717E02068006800F4807068B930
:1019B0002068006820F010002168086000BF002047
:1019C00084F8340000BF012084F83500E06B10B1CA
:1019D0002046E16B8847606D38B3606D00F0010010
:1019E000F0B1052084F835002068006820F001007F
:1019F0002168086000BF0098401C0090B84200D9E0
:101A000005E02068006800F001000028F3D100BF65
:101A100000BF002084F8340000BF012084F83500A6
:101A2000E06C10B12046E16C884700BFA4E70000DD
:101A300070000220010080002DE9F04104460025DD
:101A400000F0CCF9074614B90120BDE8F081606AC6
:101A500000B100BF00BF002084F8340000BF0220A6
:101A600084F835002068006820F0010021680860D3
:101A70000AE000F0B3F9C01B052805D920206065F5
:101A8000032084F83500E0E72068006800F00100DA
:101A90000028EED12068056820480540D4E90101FE
:101AA0000843E16808432169084361690843A16963
:101AB0000843E1690843216A08430543606A042832
:101AC00003D1D4E90B010843054320680560206871
:101AD000456925F00705606A0543606A04280BD153
:101AE000A06A05432046FFF7E3F928B1402060656E
:101AF000012084F83500A8E7206845612046FFF7FB
:101B0000BDF9064694F85C103F208840B060002084
:101B10006065012084F83500002096E73F8010E0E2
:101B20002DE9F04104460D4616461F464FF00008C9
:101B300000BF94F83400012802D10220BDE8F081F2
:101B4000012084F8340000BF94F83500012811D139
:101B5000022084F83500002060653B463246294665
:101B60002046FFF712FA2068006840F00100216863
:101B7000086006E000BF002084F8340000BF4FF08A
:101B800002084046DAE731B5002400F027F90446A0
:101B900000BF00F023F9001B00998842F9D338BD3B
:101BA000F8B502460B46002100250024002000BFA6
:101BB000E4E0012606FA01F51E6806EA0504AC42D7
:101BC00071D15E68022E02D05E68122E13D1CF084A
:101BD00002F1200656F827004E07F70E0F26BE40EA
:101BE000B0434F07FF0E1E69BE403043CF0802F1DD
:101BF000200646F8270010684F000326BE40B04379
:101C00001E7906F003064F00BE40304310605E6848
:101C1000012E08D05E68022E05D05E68112E02D01B
:101C20005E68122E13D190684F000326BE40B04369
:101C30004F00DE68BE4030439060506801268E4001
:101C4000B0431E79C6F300168E4030435060D06812
:101C50004F000326BE40B0434F009E68BE40304355
:101C6000D0605E6806F08056B6F1805FA8D100BFF4
:101C7000444E366846F48046424F3E603E463668E3
:101C800006F48046009600BF00BF3F4E8F0856F80E
:101C900027008E07370F0F26BE40B0433B4EB2429F
:101CA00002D100262EE068E0394EB24201D1012671
:101CB00028E0384EB24201D1022623E0364EB2422D
:101CC00001D103261EE0354EB24201D1042619E0AF
:101CD000334EB24201D1052614E0324EB24201D158
:101CE00006260FE0304EB24201D107260AE02F4E01
:101CF000B24201D1082605E02D4EB24201D109269B
:101D000000E00A268F073F0FBE4030431E4E8F086B
:101D100046F82700274E3068A0435E6806F48036F8
:101D2000B6F5803F00D12043224E3060361D30682A
:101D3000A0435E6806F40036B6F5003F00D12043AC
:101D40001C4E361D3060361D3068A0435E6806F4B8
:101D50008016B6F5801F00D12043164E083630603D
:101D6000361D3068A0435E6806F40016B6F5001F05
:101D700000D120430F4E0C363060491C1029FFF46F
:101D800018AFF8BD44380240083801400000024056
:101D90000004024000080240000C02400010024013
:101DA0000014024000180240001C024000200240C3
:101DB00000240240003C0140024613690B400BB175
:101DC000012000E00020704742694A4042617047AC
:101DD0000AB1816101E00B0483617047014800682A
:101DE0007047000074000220024692F8410020284B
:101DF0002DD100BF92F84000012801D10220704788
:101E0000012082F8400000BF242082F841001068C1
:101E1000006820F00100136818601068006820F462
:101E200080501368186010680068084313681860D1
:101E30001068006840F0010013681860202082F8E4
:101E4000410000BF002082F8400000BFD7E7022019
:101E5000D5E7000010B504460CB9012010BD94F878
:101E6000410028B9002084F84000204600F0E8F93D
:101E7000242084F841002068006820F001002168D7
:101E80000860606820F070602168086120688068E0
:101E900020F4004021688860A06868B1E0680128EB
:101EA00005D1A06840F400402168886004E0A06883
:101EB00040F4044021688860E068022802D1800272
:101EC00021684860206840681049084321684860DC
:101ED000D4E904010843A16940EA01202168C860EF
:101EE000D4E907010843216808602068006840F0D1
:101EF00001002168086000206064202084F841000F
:101F00000020206384F8420000BFA7E700800002A1
:101F10002DE9F8430446894616461F46DDF8208021
:101F2000002594F84100202877D100BF94F84000A4
:101F3000012802D10220BDE8F883012084F8400086
:101F400000BFFFF74BFF054619230122D1032046AE
:101F5000009502F077FE08B10320ECE7212084F819
:101F60004100102084F842000020606466626785AA
:101F70006063608DFF280CD9FF2020854FF400504E
:101F8000009094F82820C3024946204602F042FE01
:101F90000BE0608D20854FF40050009094F82820CD
:101FA00003034946204602F035FE43E02A464146F7
:101FB000204602F09DFE30B1606C042801D1012062
:101FC000B9E70320B7E7616A481C606208782168B6
:101FD0008862608D401E6085208D401E2085208D8A
:101FE00040BB608D30B343460022802120460095DF
:101FF00002F028FE08B103209DE7608DFF280DD96F
:10200000FF2020850020009094F828204FF0807356
:102010004946204602F0FEFD0CE02FE0608D208551
:102020000020009094F828204FF000734946204685
:1020300002F0F0FD208D0028B8DC2A4641462046FB
:1020400002F02BFE30B1606C042801D1012072E750
:10205000032070E720202168C86120684068084993
:10206000084021684860202084F84100002084F85E
:10207000420000BF84F8400000BF5CE702205AE73E
:1020800000E800FE2DE9FC5F0446894692469B4627
:10209000DDE90C780E9E002594F8410020287DD1C2
:1020A00017B1B8F1000F02D10120BDE8FC9F00BFBD
:1020B00094F84000012801D10220F6E7012084F8BD
:1020C000400000BFFFF78AFE054619230122D10315
:1020D0002046009502F0B6FD08B10320E5E7222076
:1020E00084F84100402084F8420000206064676268
:1020F000A4F82A8060635B46524649462046CDE9F3
:10210000006502F041FD80B1606C042806D100BF7B
:10211000002084F8400000BF0120C6E700BF002077
:1021200084F8400000BF0320BFE7608DFF280DD971
:10213000FF2020854FF41050009094F828204FF095
:1021400080734946204602F065FD0CE0608D2085D5
:102150004FF41050009094F828204FF00073494637
:10216000204602F057FD00BF3346002204212046DE
:10217000009502F067FD08B1032096E72068406AE9
:10218000C1B2626A501C60621170208D401E2085B1
:10219000608D401E6085208D48BB00E04BE0608D67
:1021A00028B33346002280212046009502F04AFDE4
:1021B00008B1032079E7608DFF280CD9FF20208526
:1021C0000020009094F828204FF080734946204664
:1021D00002F020FD0BE0608D20850020009094F837
:1021E00028204FF000734946204602F013FD608D11
:1021F0000028B9DC2A463146204602F04EFD30B1B7
:10220000606C042801D101204FE703204DE7202016
:102210002168C86120684068084908402168486012
:10222000202084F84100002084F8420000BF84F898
:10223000400000BF39E7022037E7000000E800FE59
:102240007047000002480068401C01490860704760
:102250007400022010B50848006840F40070064978
:102260000860052000F06CFA0F2000F007F800F07D
:102270001BFA002010BD0000003C024070B504466F
:10228000074800684FF47A71B0FBF1F5284602F078
:10229000CDF800222146501E00F014FA002070BD37
:1022A0007000022070B504460E46154600BF94F833
:1022B000A000012801D1022070BD012084F8A000F7
:1022C00000BF022084F8A10005EB850101EBC502E7
:1022D00004F1380101EB820034223146FEF7B6F9F1
:1022E0002A463146204606F09BFA012021684862C2
:1022F00084F8A10000BF002084F8A00000BF00BF48
:10230000DAE7000070B50446002500260CB901206C
:1023100070BD94F8A10028B9002084F8A0002046E0
:1023200000F084F8022084F8A1002068806920F081
:10233000704021688861D4E901010843E1680843DD
:1023400021690843216889690843216888612068F8
:1023500080683549084021688860A08A05042068A3
:102360008068A16929430843216888602068C068A3
:102370002D4908402168C860A08B05042068C0680A
:10238000216A294308432168C860206800692649FA
:10239000084021680861A08C050420680069A16AD2
:1023A0002943084321680861206840691E490840A4
:1023B00021684861A08D050420684069216B29438C
:1023C00008432168486194F83500050294F8360006
:1023D00006042068C06A00F07F402168C86246EAAF
:1023E000050094F8341008432168C96A084321683D
:1023F000C8622068406B40F0040021684863206890
:10240000406B40F00200216848632068806940F01A
:102410000100216888610020C4F8A400012084F82C
:10242000A100002074E7000000F800F010B586B0AD
:10243000044600BF4748006840F080604549086096
:102440000846006800F08060009000BF00BF00BF39
:1024500040481438006840F400003E4914390860D0
:102460000846006800F40000009000BF00BF00BFF5
:102470000846006840F0020008600846006800F066
:102480000200009000BF00BF00BF0846006840F097
:10249000200008600846006800F02000009000BF9F
:1024A00000BF00BF0846006840F0400008600846D2
:1024B000006800F04000009000BF00BF00BF084669
:1024C000006840F0800008600846006800F0800066
:1024D000009000BF00BF00BF0846006840F4807055
:1024E00008600846006800F48070009000BF00BFDC
:1024F000202001900120029003900320049001A964
:102500001548FFF74DFB4FF48060019002200290C8
:1025100000200390032004900E20059001A90F488D
:10252000FFF73EFB4FF40C60019001A90C48FFF748
:1025300037FB4FF47E40019001A90A48FFF730FBBA
:1025400040F2F760019001A90748FFF729FB06B0A8
:1025500010BD000044380240000402400014024054
:1025600000180240001C0240002002402DE9F0410A
:1025700004460E461746984600BF94F8A00001286E
:1025800002D10220BDE8F081012084F8A00000BF44
:10259000022084F8A10008EB880000EBC80104F1D8
:1025A000380000EB81052E60A86A30446860AF6097
:1025B000E86A3844E86042462946204606F030F989
:1025C00001202168486284F8A10000BF002084F83F
:1025D000A00000BF00BFD5E72DE9F04105460E463B
:1025E0001746984600BF95F8A000012802D10220A6
:1025F000BDE8F081012085F8A00000BF022085F829
:10260000A10008EB880000EBC80105F1380000EBE1
:102610008104002020602068304460600020A060B9
:10262000A0683844E060A662E76242462146284638
:1026300006F0F6F801202968486285F8A10000BF7D
:10264000002085F8A00000BF00BFD1E74178154AFF
:1026500011600178F9B1121D41681160017B090711
:10266000C27A41EA0261827A41EAC241427B41EA8E
:102670008241827B41EA4241C27B41EA0241427A85
:1026800041EA0221027A41EA420102781143054AF5
:102690000832116005E00021024A121D1160121D6E
:1026A0001160704798ED00E0704700BF00F01F0216
:1026B000012191404209920002F1E022C2F800118A
:1026C00000BF70472DE9F05F80460D461646002793
:1026D00007F016FB074639462A46334601F0070045
:1026E000C0F1070ABAF1040F02D94FF0040A01E061
:1026F000C0F1070AD14600F1040ABAF1070F02D26D
:102700004FF0000A01E0A0F1030AD4464FF0010A9D
:102710000AFA09FAAAF1010A0AEA020A0AFA0CFA02
:102720004FF0010B0BFA0CFBABF1010B0BEA030BA7
:102730004AEA0B042146404607F0EAFABDE8F09F5A
:1027400000BF00F00702064B19684FF6FF0319405F
:10275000044B0B4343EA0221014B196000BF704751
:102760000CED00E00000FA0538B5002400BF204859
:10277000006840F080501E4908600846006800F07C
:102780008050009000BF00BF1A48006840F48030BD
:1027900018490860FFF722FB044607E0FFF71EFB1D
:1027A000001BB0F57A7F01D9032038BD114840687D
:1027B00000F48030B0F5803FF0D10E48006840F45E
:1027C00000300C490860FFF709FB044607E0FFF7FB
:1027D00005FB001BB0F57A7F01D90320E5E705482A
:1027E000406800F40030B0F5003FF0D10020DCE795
:1027F00040380240007000402DE9F84304460026AE
:1028000000250027A846A946207800F0010088B1DD
:1028100000BFFE48006820F40000FC49086008463C
:102820000068616B0843F949086000BF606B08B934
:102830004FF00108206800F40020B0F5002F13D1FC
:10284000F2488430006820F44010E16B0843EF49FF
:1028500084310860E06BB0F5801F01D14FF00108B2
:10286000E06B08B94FF00109206800F48010B0F562
:10287000801F13D1E5488430006820F44000216CAB
:102880000843E24984310860206CB0F5800F01D123
:102890004FF00108206C08B94FF00109206800F0E2
:1028A0008070B0F1807F01D14FF00108207800F0F6
:1028B0002000202870D100BFD4483830006840F094
:1028C0008050D249383108600846006800F08050D6
:1028D000009000BF00BFCE48006840F48070CC4933
:1028E0000860FFF77BFA064607E0FFF777FA801BE0
:1028F000642802D90320BDE8F883C548006800F4C5
:1029000080700028F1D0C1486830006800F440753C
:1029100085B3208E00F44070A8422BD0BB486830AD
:10292000006820F44075B9486830006840F4803091
:10293000B649683108600846006820F480300860B5
:1029400008460560006800F0010098B1FFF746FAFC
:10295000064608E0FFF742FA801B41F288318842C0
:1029600001D90320C7E7A94868300068C0F34000D8
:102970000028EFD000BF208E00F44070B0F5407FFB
:102980000BD1A248006820F4F810A24A216B114034
:1029900008439E49086006E010E09C48006820F467
:1029A000F8109A490860994868300068218EC1F390
:1029B0000B01084395496831086000BF207800F09A
:1029C0001000102810D100BF90488430006820F01B
:1029D00080708E498431086008460068A16B084306
:1029E0008A498431086000BF208800F48040B0F537
:1029F000804F09D185488830006820F44030616EEE
:102A00000843824988310860208800F40040B0F50E
:102A1000004F09D17D488830006820F44020A16E25
:102A200008437A4988310860206800F48030B0F5A6
:102A3000803F09D175488830006820F44010E16E6D
:102A40000843724988310860206800F40030B0F50E
:102A5000003F09D16D488830006820F44000216FA4
:102A600008436A4988310860207800F04000402817
:102A700009D166488830006820F00300616C084383
:102A8000624988310860207800F08000802809D1F0
:102A90005E488830006820F00C00A16C08435B4958
:102AA00088310860208800F48070B0F5807F09D1FB
:102AB00056488830006820F03000E16C08435349E4
:102AC00088310860208800F40070B0F5007F09D1DB
:102AD0004E488830006820F0C000216D08434B4903
:102AE00088310860208800F48060B0F5806F09D1DB
:102AF00046488830006820F44070616D08434349BF
:102B000088310860208800F40060B0F5006F09D1BA
:102B10003E488830006820F44060A16D08433B497E
:102B200088310860208800F48050B0F5805F09D1BA
:102B300036488830006820F44050E16D084333493E
:102B400088310860208800F40050B0F5005F09D19A
:102B50002E488830006820F44040216E08432B49FD
:102B600088310860206800F48000B0F5800F09D13A
:102B700026488830006820F08060A16F0843234910
:102B800088310860206800F40010B0F5001F0FD1F4
:102B90001E488830006820F00060E16F08431B4940
:102BA00088310860E06FB0F1006F01D14FF001098A
:102BB000207800F00800082801D14FF001092068B2
:102BC00000F48020B0F5802F09D1104888300068CB
:102BD00020F04070616F08430C498831086020681C
:102BE00000F40000B0F5000F0AD1084888300068F2
:102BF00020F08050D4F880100843044988310860E0
:102C0000206800F08060B0F1806F05E00838024075
:102C100000700040FFFCFF0F08D1FE48006820F064
:102C20000050D4F884100843FA490860206800F086
:102C30000060B0F1006F0AD1F648001F006820F074
:102C40000070D4F888100843F249091F0860206812
:102C500000F08050B0F1805F0AD1EE48001F00689C
:102C600020F08060D4F88C100843EA49091F0860FE
:102C7000B8F1010F03D02068B0F1007F7DD1E548A5
:102C80009038006820F08060E24990390860FFF7D2
:102C9000A5F8064606E0FFF7A1F8801B642801D9D5
:102CA000032028E6DB4890380068C0F3C0600028A5
:102CB000F1D1207800F00100F0B3606BE0BBD548A3
:102CC0000C38006800F440304FF4403191FAA1F123
:102CD000B1FA81F120FA01F5CE480C38006800F015
:102CE00070604FF0706191FAA1F1B1FA81F120FAB0
:102CF00001F747F6C07191FAA1F1B1FA81F160686C
:102D000088404FF4403191FAA1F1B1FA81F105FA0E
:102D100001F108434FF0706191FAA1F1B1FA81F12C
:102D200007FA01F108434FF0E04292FAA2F2B2FA38
:102D300082F2A168914000E003E00843B5490C39F4
:102D40000860206800F40020B0F5002F03D1E06B8C
:102D5000B0F5801F09D0206800F48010B0F5801F06
:102D600050D1206CB0F5800F4CD1AA480C380068C7
:102D700000F440304FF4403100E0CFE091FAA1F18F
:102D8000B1FA81F120FA01F5A2480C38006800F090
:102D9000E0404FF0E04191FAA1F1B1FA81F120FA5F
:102DA00001F747F6C07191FAA1F1B1FA81F16068BB
:102DB00088404FF4403191FAA1F1B1FA81F105FA5E
:102DC00001F108434FF0706292FAA2F2B2FA82F275
:102DD000E168914008434FF0E04191FAA1F1B1FA66
:102DE00081F107FA01F108438A490C3908608948E2
:102DF000001F006820F01F00616A491E08438549D2
:102E0000091F0860206800F08070B0F1807F3FD11A
:102E100080480C38006800F070604FF0706191FAE3
:102E2000A1F1B1FA81F120FA01F57A480C38006875
:102E300000F0E0404FF0E04191FAA1F1B1FA81F1E8
:102E400020FA01F747F6C07191FAA1F1B1FA81F1C8
:102E5000606888404FF4403292FAA2F2B2FA82F2ED
:102E60002169914008434FF0706191FAA1F1B1FAE4
:102E700081F105FA01F108434FF0E04191FAA1F127
:102E8000B1FA81F107FA01F1084362490C3908608F
:102E9000206800F00070B0F1007F25D147F6C071C6
:102EA00091FAA1F1B1FA81F1606888404FF44032A3
:102EB00092FAA2F2B2FA82F22169914008434FF0ED
:102EC000706292FAA2F2B2FA82F2E168914008438B
:102ED0004FF0E04292FAA2F2B2FA82F2A168914077
:102EE00008434C490C3908604A489038006840F063
:102EF0008060484990390860FEF770FF064606E09A
:102F0000FEF76CFF801B642801D90320F3E44148DD
:102F100090380068C0F3C0600028F1D0B9F1010F0B
:102F200069D13C489038006820F080503949903988
:102F30000860FEF753FF064606E0FEF74FFF801BD2
:102F4000642801D90320D6E4324890380068C0F3E1
:102F500040700028F1D1206800F40020B0F5002F67
:102F600001D1E06B38B1206800F48010B0F5801F0B
:102F70004FD1206CF0BB27480838006800F440307F
:102F80004FF4403191FAA1F1B1FA81F120FA01F543
:102F900020480838006800F0E0404FF0E04191FA26
:102FA000A1F1B1FA81F120FA01F747F6C07191FA67
:102FB000A1F1B1FA81F1606988404FF4403191FA92
:102FC000A1F1B1FA81F105FA01F108434FF0706205
:102FD00092FAA2F2B2FA82F2A169914008434FF04C
:102FE000E04191FAA1F1B1FA81F107FA01F1084348
:102FF000084901E00DE0BBE008390860081D0068E1
:1030000020F4F851A06A401E41EA00200149091F3E
:10301000086001E090380240206800F40010B0F52C
:10302000001F40D1E06FB0F1006F3CD15148006803
:1030300000F070604FF0706191FAA1F1B1FA81F186
:1030400020FA01F54B48006800F0E0404FF0E04105
:1030500091FAA1F1B1FA81F120FA01F747F6C071B6
:1030600091FAA1F1B1FA81F1606988404FF44032E0
:1030700092FAA2F2B2FA82F2216A914008434FF02A
:10308000706191FAA1F1B1FA81F105FA01F10843F9
:103090004FF0E04191FAA1F1B1FA81F107FA01F1A3
:1030A000084334490860207800F00800082845D11A
:1030B0003048006800F070604FF0706191FAA1F143
:1030C000B1FA81F120FA01F52A48006800F4403095
:1030D0004FF4403191FAA1F1B1FA81F120FA01F7F0
:1030E00047F6C07191FAA1F1B1FA81F160698840A7
:1030F0004FF4403191FAA1F1B1FA81F107FA01F1EF
:1031000008434FF0706191FAA1F1B1FA81F105FA2B
:1031100001F108434FF0E04292FAA2F2B2FA82F2D1
:10312000E1699140084313490860081D006820F4D4
:103130004030E16A08430F49091D08600D4888388E
:10314000006840F080500B4988390860FEF746FE61
:10315000064606E0FEF742FE801B642801D90320E4
:103160009FE5044888380068C0F340700028F1D01B
:10317000002096E58838024070B504460D460026CA
:103180006648006800F00F00A8420ED2634800684D
:1031900020F00F002843614908600846006800F0ED
:1031A0000F00A84201D0012070BD207800F002007D
:1031B000022807D15A48006820F0F000A1680843AF
:1031C00057490860207800F00100002860D060684E
:1031D000012807D1524808380068C0F34040A0B920
:1031E0000120E1E76068022807D14D4808380068EF
:1031F000C0F3406048B90120D6E749480838006864
:10320000C0F3400008B90120CEE74548006820F02F
:1032100003006168084342490860FEF7DFFD064687
:103220006068012810D108E0FEF7D8FD801B41F24C
:103230008831884201D90320B6E73948006800F098
:103240000C000428F0D123E06068022810D108E0C7
:10325000FEF7C4FD801B41F28831884201D903206A
:10326000A2E72F48006800F00C000828F0D10FE01A
:1032700008E0FEF7B3FD801B41F28831884201D996
:10328000032091E72648006800F00C000028F0D1E8
:103290002248006800F00F00A8420ED91F480068BD
:1032A00020F00F0028431D4908600846006800F020
:1032B0000F00A84201D0012076E7207800F004003A
:1032C000042807D11648006820F4E050E16808435C
:1032D00013490860207800F00800082808D1104839
:1032E000006820F46040216940EAC1000C49086090
:1032F00000F04EF80A49096801F0F001F02292FA54
:10330000A2F2B2FA82F2D140064A515CC8400649A4
:1033100008600F20FEF7B2FF002045E7003C0240A6
:103320000838024006CC00087000022001480068FE
:10333000704700007000022000B5FFF7F7FF074953
:10334000096801F4E0514FF4E05292FAA2F2B2FAA5
:1033500082F2D140024A515CC84000BD08380240A8
:1033600016CC000800B5FFF7E1FF0749096801F432
:1033700060414FF4604292FAA2F2B2FA82F2D14076
:10338000024A515CC84000BD0838024016CC000813
:1033900070B50021002200230020274C246804F08F
:1033A0000C0424B1042C04D0082C41D103E02348A0
:1033B00040E023483EE0204C241F246804F03F01F5
:1033C0001D4C241F246804F4800484B11C4CB4FBFD
:1033D000F1F5194C241F246847F6C076344096FA5C
:1033E000A6F6B6FA86F6F44005FB04F20FE0134C9D
:1033F000B4FBF1F5104C241F246847F6C076344026
:1034000096FAA6F6B6FA86F6F44005FB04F20A4CE4
:10341000241F246804F440344FF4403595FAA5F590
:10342000B5FA85F5EC40641C6300B2FBF3F001E0F3
:10343000024800BF00BF70BD083802400024F400FD
:1034400040787D0138B504460025207800F0010061
:10345000002871D0FE48006800F00C0004280DD050
:10346000FB48006800F00C00082813D1F848001F42
:10347000006800F48000B0F5800F0BD1F4480838E4
:103480000068C0F34040002869D06068002866D119
:10349000012038BD00BF6068B0F5803F08D1EC481E
:1034A0000838006840F48030E949083908602EE0A7
:1034B000606868B9E6480838006820F48030E4495C
:1034C000083908600846006820F4802008601EE083
:1034D0006068B0F5A02F0DD1DD480838006840F4D1
:1034E0008020DB49083908600846006840F48030D5
:1034F00008600CE0D6480838006820F48030D449D1
:10350000083908600846006820F48020086000BF81
:10351000606890B1FEF762FC054606E0FEF75EFCCF
:10352000401B642801D90320B3E7C9480838006864
:10353000C0F340400028F1D011E0FEF74FFC0546F3
:1035400006E0FEF74BFC401B642801D90320A0E7EE
:10355000BF4808380068C0F340400028F1D1207807
:1035600000F00200022873D1B948006800F00C0096
:1035700058B1B748006800F00C00082821D1B448C1
:10358000001F006800F48000D8B9B148083800680E
:10359000C0F3400020B1E068012801D0012078E7A5
:1035A000AB480838006820F0F800F82292FAA2F23E
:1035B000B2FA82F2216991400843A54908390860AE
:1035C00046E0E06850B3A2480838006840F00100C7
:1035D0009F4908390860FEF701FC054606E0FEF742
:1035E000FDFB401B022801D9032052E79848083808
:1035F0000068C0F340000028F1D095480838006802
:1036000020F0F800F82292FAA2F2B2FA82F22169CE
:10361000914008438E490839086019E08C48083801
:10362000006820F001008A4908390860FEF7D6FBDF
:10363000054606E0FEF7D2FB401B022801D9032015
:1036400027E7834808380068C0F340000028F1D11C
:10365000207800F00800082836D16069D0B17C4895
:103660006C30006840F0010079496C310860FEF769
:10367000B5FB054606E0FEF7B1FB401B022801D969
:10368000032006E772486C300068C0F34000002851
:10369000F1D019E06E486C30006820F001006C49F0
:1036A0006C310860FEF79AFB054606E0FEF796FBD4
:1036B000401B022801D90320EBE665486C30006806
:1036C000C0F340000028F1D1207800F00400042865
:1036D00071D100BF5E483830006840F080505C49CE
:1036E000383108600846006800F08050009000BF44
:1036F00000BF5848006840F4807056490860FEF7E3
:103700006DFB054606E0FEF769FB401B642801D906
:103710000320BEE64F48006800F480700028F2D015
:1037200000BFA068012808D149486830006840F00F
:1037300001004749683108602DE0A06868B9444835
:103740006830006820F0010041496831086008468F
:10375000006820F0040008601DE0A06805280DD175
:103760003B486830006840F004003949683108601F
:103770000846006840F0010008600CE034486830FA
:10378000006820F00100324968310860084600688E
:1037900020F00400086000BFA068A8B1FEF71EFB7F
:1037A000054609E0FEF71AFB401B41F288318842CA
:1037B00002D903206DE61BE0254868300068C0F39D
:1037C00040000028EED013E0FEF708FB054608E0B5
:1037D000FEF704FB401B41F28831884201D90320E7
:1037E00057E61B4868300068C0F340000028EFD15E
:1037F000A06988B31648006800F00C00082873D050
:10380000A069022864D112480838006820F080704E
:103810000F4908390860FEF7E1FA054606E0FEF7B1
:10382000DDFA401B022801D9032032E60848083897
:103830000068C0F340600028F1D1D4E907010843D3
:1038400047F6C07292FAA2F2B2FA82F2616A04E01A
:10385000083802400070004058E0914008430122BF
:10386000A16AC2EB51014FF4403292FAA2F2B2FACD
:1038700082F2914008434FF0706292FAA2F2B2FADB
:1038800082F2E16A914008434FF0E04292FAA2F2DC
:10389000B2FA82F2216B914008431D490860081F6B
:1038A000006840F08070091F0860FEF797FA05462F
:1038B00006E0FEF793FA401B022801D90320E8E551
:1038C0001348001F0068C0F340600028F1D01DE0DD
:1038D0000F48001F006820F080700D49091F086024
:1038E000FEF77CFA054607E00EE0FEF777FA401B8C
:1038F000022801D90320CCE50548001F0068C0F369
:1039000040600028F1D101E00120C2E50020C0E5BF
:103910000438024070B504460D460CB9012070BD54
:1039200094F82C0028B9002084F82D00204600F0DF
:1039300011F8022084F82C00211D2068FDF7D1FB2E
:103940002946D4E90002FDF737FC012084F82C0059
:103950000020E4E710B586B0044600BF3E4800688A
:1039600040F001003C4908600846006800F0010092
:10397000009000BF00BF00BF37480838006840F023
:1039800004003549083908600846006800F0040062
:10399000009000BF00BF00BF0846006840F008006C
:1039A00008600846006800F00800009000BF00BFF3
:1039B00000BF0846006840F0100008600846006834
:1039C00000F01000009000BF00BF00BF0846006874
:1039D00040F0200008600846006800F020000090D9
:1039E00000BF00BF00BF0846006840F0400008600C
:1039F0000846006800F04000009000BF00BF0D20A6
:103A000001900220029001200390032004900C20DA
:103A1000059001A91148FEF7C3F84CF2037001901C
:103A200001A90F48FEF7BCF84FF68370019001A979
:103A30000C48FEF7B5F84FF63F00019001A90A487F
:103A4000FEF7AEF848F23710019001A90748FEF7DB
:103A5000A7F806B010BD0000383802400008024048
:103A6000000C024000100240001402400018024006
:103A700070B504460D4694F82C00022800D170BDA4
:103A8000022084F82C0029462068FDF764FB012001
:103A900084F82C000020F2E770B504460D46164667
:103AA00094F82C00022800D170BD022084F82C006C
:103AB000324629462068FDF755FB2868022803D1C5
:103AC000052084F82C0002E0012084F82C0000205E
:103AD000EAE770B504460CB9012070BDA06AB0F5E4
:103AE000005F00D100BF206B40B9E068B0F5E06F27
:103AF00002D90221216301E00121216394F85D00D4
:103B000028B9002084F85C00204600F04FF802201D
:103B100084F85D002068006820F04000216808609B
:103B2000E068B0F5E06F01D9002501E04FF4805561
:103B3000E068B0F5706F05D0E068B0F5E06F01D0D7
:103B40000021A162D4E901010843216908436169A8
:103B50000843218B01F400710843E1690843216A9D
:103B60000843A16A084321680860206B022805D138
:103B70002068006840F40060216808600421A069A2
:103B800001EA1040616A0843616B0843E168084339
:103B90002843216848602168E06A086100202066A7
:103BA000012084F85D00002097E7000010B586B082
:103BB000044657492068884276D100BF55480068BE
:103BC00040F48040534908600846006800F4804093
:103BD000009000BF00BF00BF4E481038006840F0A2
:103BE00002004C49103908600846006800F00200E5
:103BF000009000BF00BF4FF460400190022002908F
:103C000000200390032004900520059001A942485C
:103C1000FDF7C6FF4FF48050019002200290002073
:103C20000390032004900520059001A93A48FDF770
:103C3000B7FF3A483A4908600020486000213848F8
:103C40008160C1604FF48061016149004161890078
:103C500081610021C1614FF4403101620021416264
:103C6000FDF7EAFE00BF2E48A065846300BF2B4825
:103C700018302C49086000204860402129488160A4
:103C80000021C1604FF480610161490041618900F8
:103C900081610021C16101624162FDF7CDFE00BF7B
:103CA00020486065846300BF1F49206888422DD189
:103CB00000BF18481038006840F01000154910394E
:103CC00008600846006800F01000009000BF00BFC8
:103CD00000BF1048001D006840F400500D49091D48
:103CE00008600846006800F40050009000BF00BF64
:103CF0006420019002200290032004900120039090
:103D00000520059001A90948FDF74AFF06B010BD3E
:103D10000038004040380240000402405860024031
:103D20000C8604206C860420003401400010024000
:103D30002DE9FC4704460F4616461D46FEF74EF891
:103D400080464FF000096068B0F5827F0AD1A06814
:103D500040B933463A4639462046009500F027F9E7
:103D6000BDE8FC8700BF94F85C00012801D1022067
:103D7000F6E7012084F85C0000BF94F85D0001289C
:103D800002D04FF0020908E107B116B94FF001095E
:103D900003E1042084F85D00002020662764A4F875
:103DA0004460A4F84660A063A087E087A06AB0F5ED
:103DB000005F13D100BF206800684DF6FF71084016
:103DC000216808602068006840F40050216808609D
:103DD00000BFB4F84600401EA4F84600E068B0F505
:103DE000E06F06D92068406820F480502168486060
:103DF00005E02068406840F4805021684860A06871
:103E0000B0F5004F05D12068006820F4804021689B
:103E100008602068006800F04000402805D0206855
:103E2000006840F0400021680860E068B0F5E06F8D
:103E300022D81CE02068806800F0010058B120689A
:103E4000017B226C501C20641170B4F84600401EA7
:103E5000A4F846000BE03DB1681C40B1FDF7BEFF81
:103E6000A0EB0800A84202D34FF0030995E0B4F894
:103E700046000028DEDC22E01DE02068806800F0BB
:103E8000010060B12068C068216C0880206C801C33
:103E90002064B4F84600401EA4F846000BE03DB193
:103EA000681C40B1FDF79AFFA0EB0800A84202D3BE
:103EB0004FF0030971E0B4F846000028DDDCA06A89
:103EC000B0F5005F50D12068006840F48050216850
:103ED00008602B4601221146204606F005FF10B16E
:103EE0004FF0030959E0E068B0F5E06F04D92068AD
:103EF000C068216C088003E02068007B216C08709A
:103F00002B4601221146204606F0EEFE20B102208B
:103F100020664FF0030940E0E068B0F5706F06D10D
:103F20002068C06880B20190BDF804001CE02068E1
:103F3000007B0190BDF80400E068B0F5E06F13D19C
:103F4000206B022810D12B4601221146204606F094
:103F5000CBFE20B1022020664FF003091DE020684F
:103F6000007B0190BDF804002946204606F0F6FDCE
:103F700008B12020206620688068C0F3001038B1A6
:103F8000206E40F0020020664FF6EF7021688860D6
:103F9000206E08B14FF0010900BF012084F85D00D8
:103FA00000BF002084F85C0000BF4846D8E62DE939
:103FB000F84F04460F4690461D460A9EFDF70EFF39
:103FC00081464FF0010A4FF0000B00BF94F85C00EF
:103FD000012802D10220BDE8F88F012084F85C009E
:103FE00000BF94F85D00012802D04FF0020B87E17A
:103FF0001FB1B8F1000F00D015B94FF0010B7FE1F0
:10400000052084F85D0000202066C4F84080A4F8F4
:104010004650A4F84450A763E587A587A06AB0F589
:10402000005F0ED100BF206800684DF6FF710840A8
:10403000216808602068006840F40050216808602A
:1040400000BFE068B0F5E06F03D8B4F8460001287F
:1040500006DD2068406820F480502168486005E053
:104060002068406840F480502168486020680068FB
:1040700000F04000402805D02068006840F0400073
:1040800021680860E068B0F5E06F5FD956E0BAF1EA
:10409000000F31D0E08F00282EDD2068806800F00E
:1040A0000200022828D1A06B00882168C860A06B9C
:1040B000801CA063E08F401EE0874FF0000AE08F75
:1040C000D0B9A06AB0F5005F16D12068006800F092
:1040D000040058B92068406800F00800082805D19D
:1040E0002068006840F4007021680860206800685B
:1040F00040F4805021680860B4F84600002812DDC2
:104100002068806800F0010068B12068C068216CF8
:104110000880206C801C2064B4F84600401EA4F87F
:1041200046004FF0010A701C40B1FDF757FEA0EBAE
:104130000900B04202D34FF0030BE1E0E08F00280A
:10414000A5DCB4F846000028A1DC86E07DE0BAF1E9
:10415000000F3ED0E08F00283BDD2068806800F033
:104160000200022835D1E08F01280ADDA06B00880B
:104170002168C860A06B801CA063E08F801EE08770
:104180000AE0A16B481CA063087821680873E08FDF
:10419000401EE0874FF0000AE08FD0B9A06AB0F56A
:1041A000005F16D12068006800F0040058B920684C
:1041B000406800F00800082805D12068006840F435
:1041C0000070216808602068006840F48050216811
:1041D0000860B4F8460000282CDD2068806800F0F4
:1041E000010038B3B4F84600012816DD2068C06825
:1041F000216C0880206C801C2064B4F84600801E6E
:10420000A4F84600B4F84600012813DC2068406892
:1042100040F48050216848600CE02068017B226CEB
:10422000501C20641170B4F84600401EA4F84600EB
:104230004FF0010A701C40B1FDF7D0FDA0EB090062
:10424000B04202D34FF0030B5AE0E08F00283FF753
:104250007EAFB4F846000028F9DCA06AB0F5005F34
:1042600033D1334601221146204606F03DFD30B1E0
:10427000206E40F0020020664FF0030B40E0E06843
:10428000B0F5706F06D12068C06880B20090BDF8AC
:1042900000001AE02068007B0090BDF80000206B51
:1042A000022812D1334601221146204606F01CFD99
:1042B00030B1206E40F0020020664FF0030B1FE08B
:1042C0002068007B0090BDF8000020688068C0F383
:1042D000001048B1206E40F0020020664FF6EF70EB
:1042E000216888604FF0010B3146204606F074FCCF
:1042F00008B120202066206E08B14FF0010B00BFEE
:10430000012084F85D0000BF002084F85C0000BF3D
:10431000584660E670B504460E4615460CB90120B5
:1043200070BD94F8450028B9002084F84400204668
:1043300000F01CF804F108012068FCF763FE314628
:10434000A2682068FCF79EFE2946E36AD4E90102D0
:10435000FCF734FEA168206850F8210040F001000D
:10436000A268216841F822000020D9E710B586B084
:10437000044600BF2048006840F001001E49086064
:104380000846006800F00100009000BF00BF00BFB9
:1043900019480838006840F00800174908390860D3
:1043A0000846006800F00800009000BF00BF00BF92
:1043B0000846006840F0100008600846006800F0F9
:1043C0001000009000BF00BF4EF2B37001900220B9
:1043D000029001200390032004900C20059001A975
:1043E0000648FDF7DDFB4FF68070019001A90448F7
:1043F000FDF7D6FB06B010BD38380240000C024075
:1044000000100240042808D14FF0E021096941F072
:1044100004014FF0E022116107E04FF0E02109694B
:1044200021F004014FF0E0221161704770B504469D
:104430002546681EB0F1807F01D301200FE0681E81
:104440004FF0E02148610F214FF0FF3005F060FC94
:1044500000204FF0E021886107200861002070BD36
:104460007047704710B504460CB9012010BD94F890
:10447000390010B9204600F00DF8022084F8390008
:10448000211D206806F03CFD012084F83900002041
:10449000ECE7000038B5044600BF0B48006840F068
:1044A0000200094908600846006800F00200009018
:1044B00000BF00BF032201211D20FEF703F91D20CC
:1044C000FEF7F3F838BD00004038024001460868A6
:1044D000C06840F001000A68D0600868006840F0D9
:1044E00001000A68106000207047704710B504464C
:1044F00020680069C0F34000D8B12068C068C0F3EC
:104500004000B0B16FF00200216808610120207600
:104510002068806900F0030018B12046FFF7E5FF2E
:1045200005E0204600F0BEF8204600F0BCF8002070
:10453000207620680069C0F38000D8B12068C06888
:10454000C0F38000B0B16FF0040021680861022060
:1045500020762068806900F4407018B12046FFF78B
:10456000C4FF05E0204600F09DF8204600F09BF8CF
:104570000020207620680069C0F3C000D8B1206810
:10458000C068C0F3C000B0B16FF0080021680861D6
:10459000042020762068C06900F0030018B120468E
:1045A000FFF7A3FF05E0204600F07CF8204600F06E
:1045B0007AF80020207620680069C0F30010D8B196
:1045C0002068C068C0F30010B0B16FF0100021681F
:1045D0000861082020762068C06900F4407018B196
:1045E0002046FFF782FF05E0204600F05BF82046FA
:1045F00000F059F8002020762068006900F00100E2
:1046000058B12068C06800F0010030B16FF00100BF
:1046100021680861204600F047F820680069C0F36F
:10462000C01058B12068C068C0F3C01030B16FF03E
:104630008000216808612046FFF712FF20680069AA
:10464000C0F3002058B12068C068C0F3C01030B17A
:104650006FF08000216808612046FFF701FF2068A5
:104660000069C0F3801058B12068C068C0F38010A2
:1046700030B16FF0400021680861204600F03EF83C
:1046800020680069C0F3401058B12068C068C0F3CA
:10469000401030B16FF02000216808612046FFF71C
:1046A000E0FE10BD7047704710B5044608488442CC
:1046B0000CD10848017808A0FBF740FE09480188A2
:1046C00009A0FBF73BFE00200249087010BD000066
:1046D00058840420940002206672616D653A256456
:1046E0000D0A0000180002206A7065675F6461743B
:1046F000615F6C656E3A25640D0A00007047704773
:104700002DE9F04104462068C569206806682068E4
:10471000876805F00F08B8F1000F0AD105F02000F6
:1047200038B106F0200020B1204606F064FDBDE857
:10473000F081B8F1000F79D040F201103840002824
:1047400074D005F0010048B106F4807030B101204A
:1047500021680862E06E40F00100E06605F00200AA
:1047600048B107F0010030B1022021680862E06E14
:1047700040F00400E06605F0040048B107F00100D5
:1047800030B1042021680862E06E40F00200E0666B
:1047900005F0080060B106F0200010B907F0010034
:1047A00030B1082021680862E06E40F00800E06641
:1047B000E06E58B305F0200028B106F0200010B1DB
:1047C000204606F018FDE06E00F0080020B92068D1
:1047D000806800F0400018B3204606F0ECFC20682A
:1047E000806800F04000B8B12068806820F0400088
:1047F00021688860606E50B11748616E0865606E10
:10480000FCF7B1FF10B1606E016D88470DE02046E6
:10481000FFF775FF09E009E02046FFF770FF04E0AD
:104820002046FFF76CFF0020E06680E705F080007F
:1048300030B106F0800018B1204606F0E7FE76E7BA
:1048400005F0400030B106F0400018B1204606F0F7
:10485000C2FC6CE700BF6AE79FB1000810B50446D0
:104860000CB9012010BDA06900B100E000BF94F8B0
:10487000690028B9002084F86800204600F02AF872
:10488000242084F869002068006820F00100216875
:104890000860204606F0F4FC012800D1E2E7606AD7
:1048A00010B1204606F0CCFB2068406820F4904010
:1048B000216848602068806820F02A0021688860AC
:1048C0002068006840F0010021680860204606F07A
:1048D0002CFCC7E710B586B00446324920688842F0
:1048E0005ED100BF3048006840F001002E490860EA
:1048F0000846006800F00100009000BF00BF00BF44
:1049000029481430006840F010002749143108602D
:104910000846006800F01000009000BF00BF481576
:1049200001900220029001200390022004900720B1
:10493000059001A91D48FDF733F94FF480600190FF
:1049400001A91A48FDF72CF919481A4908604FF0D7
:10495000006048604021174881600021C1604FF429
:1049600080610161002141618161C1614FF40031C9
:10497000016200214162FDF75FF800BF0D4820662B
:10498000846300BF2068006840F020002168086050
:104990002520FDF78AFE032211462520FDF792FE11
:1049A00006B010BD00100140303802400000024047
:1049B000B8640240FC8104202DE9F84F04460D46FE
:1049C000164699464FF0000A94F86A0020287AD1DA
:1049D00005B116B90120BDE8F88F00BF94F8680052
:1049E000012801D10220F6E7012084F8680000BF09
:1049F0000020583460612220A074FDF7EFF9824650
:104A000026806680583C00BFA068B0F5805F0AD160
:104A1000206920B940F2FF10A4F85C001CE0FF20E0
:104A2000A4F85C0018E0A06848B9206918B9FF2014
:104A3000A4F85C0010E07F20A4F85C000CE0A06803
:104A4000B0F1805F08D1206918B97F20A4F85C001C
:104A500002E03F20A4F85C0000BFB4F85C8024E0D2
:104A6000B4F85A00401EA4F85A00534600222021F0
:104A70002046CDF8009006F0FEFD08B10320AAE71D
:104A8000A068B0F5805F09D1206938B92F46206849
:104A9000406A00EA08003880AD1C06E02068406AE1
:104AA00008F0FF01084005F8010BB4F85A0000288F
:104AB000D6D1202084F86A0000BF002084F8680066
:104AC00000BF88E7FFE7022085E77047704700BF17
:104AD000FEE701688969C1F3400111B10021026854
:104AE00091620168896901F0010129B90168896948
:104AF00041F00101026891617047000070B5044601
:104B00000D46164620688069C0F30010002837D093
:104B100013E0681C88B125B1FDF760F9801BA8423D
:104B20000BD9202084F84100002084F8420000BF07
:104B300084F8400000BF032070BD20688069C0F386
:104B400040100028E5D010202168C861202021688D
:104B5000C8612046FFF7BDFF20684068094908404A
:104B60002168486004206064202084F8410000200F
:104B700084F8420000BF84F8400000BF0120DBE75A
:104B80000020D9E700E800FE2DE9F84304468946F5
:104B900015461E46DDE908784FF40050F2B20023B6
:104BA00049460090204600F035F8424639462046F6
:104BB00000F09EF838B1606C042802D10120BDE8F5
:104BC000F8830320FBE7012E03D1E8B22168886255
:104BD00013E0C5F307202168886242463946204623
:104BE00000F086F830B1606C042801D10120E6E7BE
:104BF0000320E4E7E8B2216888623B4600224021B6
:104C00002046CDF8008000F01DF808B10320D6E75B
:104C10000020D4E7F0B50C46059D002106687168B8
:104C2000074E3140C4F309064FF47F0707EA0247F5
:104C30003E431E432E43314306687160F0BD0000C1
:104C4000009800FC2DE9F04104460E4617461D462B
:104C5000DDF8188015E0681C98B12DB1FDF7BEF89D
:104C6000A0EB0800A8420CD9202084F841000020C5
:104C700084F8420000BF84F8400000BF0320BDE874
:104C8000F081206880693040B04201D1012000E00D
:104C90000020B842DFD00020F1E770B504460D4691
:104CA00016461DE0324629462046FFF727FF08B189
:104CB000012070BD25B1FDF791F8801BA8420FD9E6
:104CC000606C40F020006064202084F841000020E7
:104CD00084F8420000BF84F8400000BF0320E8E7EA
:104CE00020688069C0F340100028DBD00020E0E796
:104CF00070B504460D4616461FE03246294620464A
:104D0000FFF7FCFE08B1012070BD681CA8B125B1F9
:104D1000FDF764F8801BA8420FD9606C40F02000BA
:104D20006064202084F84100002084F8420000BF25
:104D300084F8400000BF0320E6E720688069C0F3E4
:104D400040000028D9D00020DEE7000000B587B081
:104D500000BF0D48006840F001000B49086008469C
:104D6000006800F00100019000BF00BF0120029028
:104D700000200390022004900320059002A903481C
:104D8000FCF70EFF07B000BD3038024000000240C3
:104D900070B5044600260D4805880D48006818B116
:104DA000204603F05BFA0FE00848408845430021A5
:104DB000084602F07DFD02F0CBFF002602E0054927
:104DC0000C80761CAE42FAD370BD0000DC82042059
:104DD000EC8304200000086010B504465C48847130
:104DE0005C48006850B1204603F05EFA5948C08A1A
:104DF000574908805748008B488010BD002C51D17E
:104E0000F020534908804FF4A070488008468088FD
:104E100049F24131884205D04D48808845F2103131
:104E2000884214D12C204A4908812A2048812B200D
:104E300088810846808845F21031884206D14FF4B7
:104E4000A070434908804FF4F07048807BE04048F0
:104E5000808845F21051884210D14FF430503C49BF
:104E600008814FF4285048814FF42C5088814FF42A
:104E7000F07008804FF44870488064E034488088BF
:104E800041F6631188425ED12C20314908812B20E4
:104E900048812A2088814FF4F07008804FF44870D0
:104EA000488050E04FF4A07029490880F0204880E5
:104EB0000846808849F24131884205D024488088DC
:104EC00045F21031884207D12C20214908812A203F
:104ED00048812B20888129E01D48808845F21051A7
:104EE000884210D14FF43050194908814FF42850AE
:104EF00048814FF42C5088814FF4487008804FF45B
:104F0000F070488012E01248808841F663118842B0
:104F10000CD12C200E4908812A2048812B20888121
:104F20004FF4487008804FF4F0704880084880883B
:104F300045F21031884206D14FF4F07004490880E0
:104F40004FF4A0704880002002F078FB00BF54E7C7
:104F5000DC820420EC83042070B504460D4616461E
:104F60004348006828B132462946204603F0B2F98A
:104F700070BD4048808849F24131884205D03D48A3
:104F8000808845F21031884214D13A49488902F0AC
:104F9000D3FE201202F0C4FEE0B202F0C1FE354999
:104FA000888902F0C9FE281202F0BAFEE8B202F0C7
:104FB000B7FE54E02F48808845F21051884220D136
:104FC0002C49488902F0B8FE201202F0A9FE2949B6
:104FD0004989491C88B202F0AFFEE0B202F0A0FE9F
:104FE0002449888902F0A8FE281202F099FE21497E
:104FF0008989491C88B202F09FFEE8B202F090FE57
:105000002DE01C48808841F66311884227D1194859
:10501000807920B917480088401E001B84B21549CA
:10502000488902F089FE201202F07AFEE0B202F016
:1050300077FE201202F074FEE0B202F071FE0D491C
:10504000888902F079FE281202F06AFEE8B202F0C6
:1050500067FE281202F064FEE8B202F061FE054825
:10506000008905490880891C0E8000BF80E7000088
:10507000EC830420DC820420FEFF07602DE9F84F5A
:1050800005460E4617469846DDF828904FF0000B6F
:105090001448006840B143463A4631462846CDF8A8
:1050A000009003F03FF91BE0781B401C1FFA80FBC7
:1050B000344613E02146284602F0FAFB02F048FE8F
:1050C0004FF0000A06E00849A1F800900AF101003B
:1050D0001FFA80FADA45F6DB601C84B24445E9DD4C
:1050E000BDE8F88FEC8304200000086000B595B09F
:1050F00003F02CFBFE4988800846808818B103F035
:10510000B5F902F0F0B900BFFA48006840F48070C9
:10511000F84908600846006800F48070019000BFFC
:1051200000BF0420109001201190129003201390D2
:1051300010A9F148FCF734FD02F00CFA4FF02040C2
:10514000EE490860EE484860002088600021EB4886
:10515000C16001611021416100218161C161016271
:105160004FF480514162002181624FF48041C1625D
:105170000021016341634FF4801181631120099084
:1051800000200A9055200B9000200F9015200290CF
:1051900000200390152004900020089002AA09A97D
:1051A000D648FFF7B7F8322006F002FBD32002F012
:1051B000C3FD02F011FACE49888002F00DFACC4905
:1051C000888002F009FACA498880084680884FF62C
:1051D000FF7101EA0020C649888002F0FDF9C44948
:1051E00089880843C24988800846808849F241314D
:1051F000884278D0D42002F09FFD02F0EDF9BC493E
:10520000888002F0E9F9BA49888002F0E5F9B849E6
:105210008880084680884FF6FF7101EA0020B44973
:10522000888002F0D9F9B24989880843B04988805A
:105230000846808845F21031884254D04FF45A40D5
:1052400002F07AFD02F0C8F9A94988804FF45B406A
:1052500002F072FD02F0C0F9A549888008468088F6
:105260004FF6FF7101EA0020A14988804FF45C40AD
:1052700002F062FD02F0B0F99D49898808439C491B
:10528000888008468088B0F5004F02D145F2105062
:1052900088809748808845F21051884223D0A12009
:1052A00002F04AFD02F098F99149888002F094F9E1
:1052B0008F498880084680884FF6FF7101EA0020F8
:1052C0008B49888002F088F9894989880843884990
:1052D00088800846808845F26171884203D141F692
:1052E0006310834988808248818886A0FBF726F86E
:1052F0007F48808849F2413188427CD1CF2002F03A
:105300001BFD002002F00CFDC12002F009FD302041
:1053100002F006FDED2002F00FFD642002F000FD1A
:10532000032002F0FDFC122002F0FAFC812002F0C2
:10533000F7FCE82002F000FD852002F0F1FC1020CF
:1053400002F0EEFC7A2002F0EBFCCB2002F0F4FC41
:10535000392002F0E5FC2C2002F0E2FC002002F0F3
:10536000DFFC342002F0DCFC022002F0D9FCF72044
:1053700002F0E2FC202002F0D3FCEA2002F0DCFC88
:10538000002002F0CDFC002002F0CAFCC02002F098
:10539000D3FC1B2002F0C4FCC12002F0CDFC012094
:1053A00002F0BEFCC52002F0C7FC302002F0B8FCC1
:1053B000302002F0B5FCC72002F0BEFCB72002F09E
:1053C000AFFC362002F0B8FC482002F0A9FC3A20DD
:1053D00002F0B2FC552002F0A3FCB12002F0ACFCBC
:1053E000002002F09DFC1A2002F09AFCB62002F088
:1053F000A3FC0A2000E0ABE002F092FCA22002F045
:105400008FFCF22002F098FC002002F089FC26209C
:1054100002F092FC012002F083FCE02002F08CFC00
:105420000F2002F07DFC2A2002F07AFC282002F0F6
:1054300077FC082002F074FC0E2002F071FC0820BA
:1054400002F06EFC542002F06BFCA92002F068FC14
:10545000432002F065FC0A2002F062FC0F2002F0FB
:105460005FFC002002F05CFC002002F059FC0020F0
:1054700002F056FC002002F053FCE12002F05CFC3C
:10548000002002F04DFC152002F04AFC172002F02B
:1054900047FC072002F044FC112002F041FC0620EA
:1054A00002F03EFC2B2002F03BFC562002F038FCC0
:1054B0003C2002F035FC052002F032FC102002F006
:1054C0002FFC0F2002F02CFC3F2002F029FC3F2093
:1054D00002F026FC0F2002F023FC2B2002F02CFC13
:1054E000002002F01DFC002002F01AFC012011E057
:1054F000DC820420303802400020024090820420E8
:10550000040100A0204C43442049443A25780D0A68
:105510000000000002F004FC3F2002F001FC2A2001
:1055200002F00AFC002002F0FBFB002002F0F8FB76
:10553000002002F0F5FBEF2002F0F2FB112002F058
:10554000FBFB782006F034F9292002F0F5FBD8E5C2
:10555000FE48808845F21031884240F07C87ED207B
:1055600002F0EAFB012002F0DBFBFE2002F0D8FB98
:10557000EE2002F0E1FBDE2002F0D2FB212002F05F
:10558000CFFBF12002F0D8FB012002F0C9FBDF20A5
:1055900002F0D2FB102002F0C3FBC42002F0CCFBCF
:1055A0008F2002F0BDFBC62002F0C6FB002002F0F7
:1055B000B7FBE22002F0B4FBE22002F0B1FBE220F4
:1055C00002F0AEFBBF2002F0B7FBAA2002F0A8FB5E
:1055D000B02002F0B1FB0D2002F0A2FB002002F08F
:1055E0009FFB0D2002F09CFB002002F099FB112094
:1055F00002F096FB002002F093FB192002F090FBD2
:10560000002002F08DFB212002F08AFB002002F036
:1056100087FB2D2002F084FB002002F081FB3D205F
:1056200002F07EFB002002F07BFB5D2002F078FBA5
:10563000002002F075FB5D2002F072FB002002F0FA
:105640006FFBB12002F078FB802002F069FB0020A4
:1056500002F066FB8B2002F063FB002002F060FB8F
:10566000962002F05DFB002002F05AFBB22002F00F
:1056700063FB002002F054FB002002F051FB0220EB
:1056800002F04EFB002002F04BFB032002F048FB2F
:10569000002002F045FBB32002F04EFB002002F098
:1056A0003FFB002002F03CFB002002F039FB002011
:1056B00002F036FB002002F033FB002002F030FB4A
:1056C000002002F02DFB002002F02AFB002002F057
:1056D00027FB002002F024FB002002F021FB002029
:1056E00002F01EFB002002F01BFB002002F018FB62
:1056F000002002F015FB002002F012FB002002F057
:105700000FFB002002F00CFB002002F009FB002040
:1057100002F006FB002002F003FB002002F000FB79
:10572000002002F0FDFA002002F0FAFAB42002F0A4
:1057300003FB8B2002F0F4FA002002F0F1FA96202D
:1057400002F0EEFA002002F0EBFAA12002F0E8FAF3
:10575000002002F0E5FAB52002F0EEFA022002F095
:10576000DFFA002002F0DCFA032002F0D9FA002070
:1057700002F0D6FA042002F0D3FA002002F0D0FAA8
:10578000B62002F0D9FA002002F0CAFA002002F096
:10579000C7FAB72002F0D0FA002002F0C1FA0020C8
:1057A00002F0BEFA3F2002F0BBFA002002F0B8FA85
:1057B0005E2002F0B5FA002002F0B2FA642002F096
:1057C000AFFA002002F0ACFA8C2002F0A9FA002017
:1057D00002F0A6FAAC2002F0A3FA002002F0A0FA30
:1057E000DC2002F09DFA002002F09AFA702002F00C
:1057F00097FA002002F094FA902002F091FA00202B
:1058000002F08EFAEB2002F08BFA002002F088FA08
:10581000DC2002F085FA002002F082FAB82002F0C3
:105820008BFA002002F07CFA002002F079FA0020C6
:1058300002F076FA002002F073FA002002F070FA0B
:10584000002002F06DFA002002F06AFA002002F057
:1058500067FABA2002F070FA242002F061FA002000
:1058600002F05EFA002002F05BFA002002F058FA23
:10587000C12002F061FA202002F052FA002002F06A
:105880004FFA542002F04CFA002002F049FAFF20AF
:1058900002F046FA002002F043FAC22002F04CFA6D
:1058A0000A2002F03DFA002002F03AFA042002F049
:1058B00037FA002002F034FAC32002F03DFA3C200F
:1058C00002F02EFA002002F02BFA3A2002F028FA19
:1058D000002002F025FA392002F022FA002002F01E
:1058E0001FFA372002F01CFA002002F019FA3C20BF
:1058F00002F016FA002002F013FA362002F010FA35
:10590000002002F00DFA322002F00AFA002002F024
:1059100007FA2F2002F004FA002002F001FA2C20EE
:1059200002F0FEF9002002F0FBF9292002F0F8F95C
:10593000002002F0F5F9262002F0F2F9002002F032
:10594000EFF9242002F0ECF9002001E0DC820420D1
:1059500002F0E6F9242002F0E3F9002002F0E0F979
:10596000232002F0DDF9002002F0DAF93C2002F0F9
:10597000D7F9002002F0D4F9362002F0D1F9002046
:1059800002F0CEF9322002F0CBF9002002F0C8F983
:105990002F2002F0C5F9002002F0C2F92C2002F0FD
:1059A000BFF9002002F0BCF9292002F0B9F900206B
:1059B00002F0B6F9262002F0B3F9002002F0B0F9A7
:1059C000242002F0ADF9002002F0AAF9242002F010
:1059D000A7F9002002F0A4F9232002F0A1F9002089
:1059E00002F09EF9C42002F0A7F9622002F098F9B3
:1059F000002002F095F9052002F092F9002002F053
:105A00008FF9842002F08CF9002002F089F9F0204F
:105A100002F086F9002002F083F9182002F080F9E4
:105A2000002002F07DF9A42002F07AF9002002F0B3
:105A300077F9182002F074F9002002F071F9502073
:105A400002F06EF9002002F06BF90C2002F068F908
:105A5000002002F065F9172002F062F9002002F040
:105A60005FF9952002F05CF9002002F059F9F3206B
:105A700002F056F9002002F053F9E62002F050F946
:105A8000002002F04DF9C52002F056F9322002F054
:105A900047F9002002F044F9442002F041F90020C7
:105AA00002F03EF9652002F03BF9002002F038F9DF
:105AB000762002F035F9002002F032F9882002F059
:105AC0002FF9002002F02CF9C62002F035F9202031
:105AD00002F026F9002002F023F9172002F020F945
